:020000040800F2
:1000000078080020910100081F200008C11E000888
:100010001D200008B9060008B125000800000000F6
:100020000000000000000000000000002320000885
:10003000FF0600080000000021200008252000081D
:10004000AB010008AB010008AB010008AB010008E0
:10005000AB010008AB010008AB010008AB010008D0
:10006000AB010008AB010008AB010008AB010008C0
:10007000AB010008AB010008BD060008C906000876
:10008000AB010008AB010008AB010008AB010008A0
:10009000AB010008AB010008AB010008AB01000890
:1000A000AB010008AB010008AB010008AB01000880
:1000B000AB010008AB01000889200008AB01000873
:1000C000AB010008AB010008AB010008AB01000860
:1000D000AB0100085D250008AB010008AB0100087A
:1000E000AB010008AB010008AB01000800F002F80A
:1000F00000F03FF80AA090E8000C82448344AAF183
:100100000107DA4501D100F034F8AFF2090EBAE880
:100110000F0013F0010F18BFFB1A43F0010318473B
:10012000B8250000D8250000103A24BF78C878C14F
:10013000FAD8520724BF30C830C144BF04680C60ED
:10014000704700000023002400250026103A28BF35
:1001500078C1FBD8520728BF30C148BF0B60704739
:10016000732900F06A82002070471FB51FBD10B5CB
:1001700010BD00F06CFA1146FFF7F7FF02F058FAD5
:1001800000F08AFA03B4FFF7F2FF03BC00F08EFA26
:100190000948804709480047FEE7FEE7FEE7FEE71B
:1001A000FEE7FEE7FEE7FEE7FEE7FEE70448054957
:1001B000054A064B7047000087200008ED00000844
:1001C00078020020780800207804002078040020BD
:1001D0000FB47CB50C0009AA009001D02044401E49
:1001E000084B7B4469460190089800F0F4F90546F5
:1001F0001CB10020694600F001FA28467CBC5DF87D
:1002000014FB00002104000070B50C460546012ACD
:1002100005D02878800600D5EA69002302E0012392
:1002200005E05B1C934202D2E05C0028F9D1A8698A
:10023000E618C01AA861286A184428622846AFF355
:10024000008004E0D5E9012114F8010B9047B44285
:10025000F8D32846AFF3008070BD00002DE9F05FB1
:10026000894604464FF0000ADFF874B1FB44C0F839
:1002700020A02046E1688847002874D0252806D0B1
:10028000D4E901219047206A401C2062F1E7002652
:100290005F462046E16888472028054607DB312D68
:1002A00005D2781910F8200C08B10643F1E7B00721
:1002B00001D526F00406C4F81CA00027C4F818A035
:1002C0002A2D09D0284602F084F938B304EB8708B8
:1002D000303DC8F8185019E059F8041B204604EBCB
:1002E00087029161E1688847012F054618D1E069CE
:1002F000002820DA26F020061DE0D8F8180000EBD0
:10030000800005EB40003038C8F818002046E1684E
:100310008847054602F05DF90028EED1012F0AD08A
:100320002E2D08D12046E16888477F1C0546022F04
:1003300046F02006C4DBA069002803DA404246F0FC
:100340000106A061F00701D026F010066C2D0BD03D
:10035000682D09D04C2D39D06A2D35D0742D35D06B
:100360007A2D33D016E038E0E1682F4620468847E2
:10037000B842054609D16C2F26D04FF48060E16861
:10038000064320468847054604E06C2F1AD04FF4F8
:10039000807006430DB3A5F14100192802D820351D
:1003A00046F400664A462946204626604E46FFF738
:1003B000D7FE80B101280BD0F61D26F0070000F112
:1003C000080956E74020E4E78020D8E70020D6E778
:1003D00006F104094DE7284652E7206ABDE8F09F80
:1003E0005624000030B505460B462A4613F8014B4B
:1003F00012F8010B08B1A042F8D01CB1002802D0BD
:100400006D1CF1E7284630BD10B5431C02E010F822
:10041000011B71B18107FAD14FF0013202C88C1A69
:100420008C4314EAC211F9D0C01A0A0603D0C01EC8
:1004300010BDC01A10BD0A0401D0801E10BD0902F3
:10044000FCD0401E10BD032A40F2308010F0030C97
:1004500000F0158011F8013BBCF1020F624498BF17
:1004600011F801CB00F8013B38BF11F8013BA2F1B4
:10047000040298BF00F801CB38BF00F8013B11F02F
:10048000030300F02580083AC0F0088051F8043BCF
:10049000083A51F804CBA0E80810F5E7121D5CBF3C
:1004A00051F8043B40F8043BAFF30080D20724BF6F
:1004B00011F8013B11F801CB48BF11F8012B24BF03
:1004C00000F8013B00F801CB48BF00F8012B704752
:1004D00010B5203AC0F00B80B1E81850203AA0E8DF
:1004E0001850B1E81850A0E81850BFF4F5AF5FEA13
:1004F000027C24BFB1E81850A0E8185044BF18C9C6
:1005000018C0BDE810405FEA827C24BF51F8043B6C
:1005100040F8043B08BF7047D20728BF31F8023BC0
:1005200048BF11F8012B28BF20F8023B48BF00F854
:10053000012B70474FF000020429C0F0128010F028
:10054000030C00F01B80CCF1040CBCF1020F18BFAF
:1005500000F8012BA8BF20F8022BA1EB0C0100F042
:100560000DB85FEAC17C24BF00F8012B00F8012B15
:1005700048BF00F8012B70474FF0000200B513464A
:1005800094469646203922BFA0E80C50A0E80C50B3
:10059000B1F12001BFF4F7AF090728BFA0E80C5064
:1005A00048BF0CC05DF804EB890028BF40F8042B5D
:1005B00008BF704748BF20F8022B11F0804F18BFCA
:1005C00000F8012B704770477047704701694A1C5B
:1005D00002610878704700B58FB0CDE90131002184
:1005E000059105497944CDE9031011466846FFF7A6
:1005F00035FE0FB000BD0000E5FFFFFF0A6802F8FE
:10060000010B0A607047D1E900239A4202D2531CC1
:100610000B601070704710B5436913B1AFF30080E1
:1006200001E0FFF7F1FD012010BD127800F1240177
:100630000A7000224A700122EDE711684FF0FF3284
:10064000E9E7000000487047140200207047754633
:10065000FFF7F8FFAE4605006946534620F0070055
:10066000854618B020B5FFF7A1FDBDE820404FF04A
:1006700000064FF000074FF000084FF0000B21F08C
:100680000701AC46ACE8C009ACE8C009ACE8C00959
:10069000ACE8C0098D46704710B50446AFF3008042
:1006A0002046BDE81040FFF76DBD0000014918204D
:1006B000ABBEFEE726000200FEE70000014800F0A6
:1006C0009BBA00000C010020014800F095BA000020
:1006D0005001002030B590F840500124AC40C56B6B
:1006E0006C60046863604368102B036803D09960F2
:1006F0000068C26030BD9A600068C16030BD70475C
:10070000054806494FF47A720068B0FBF1F00449DD
:1007100008605043486070470C00002040420F00C2
:100720002C00002010B580210348FFF703FF034988
:100730000020088010BD000094010020100000205F
:1007400000B5A1B011A0009013A316A2802101A8AA
:10075000FFF73EFD6423132218A11E4801F05FFB42
:100760001DA101A800F022F94FF0640338B1142252
:100770001BA1184801F053FB012021B000BD162237
:100780001CA1144801F04BFB0020F6E76A643731E6
:1007900037373138000000006A696E6764613833AA
:1007A0003000000041542B43574A41503D222573ED
:1007B000222C222573220D0A00000000436F6E6E6A
:1007C000656374696E6720576946692E2E2E0D0A7F
:1007D00000000000C4000020474F54204950000092
:1007E0005769466920636F6E6E6563746564204F58
:1007F0004B0D0A005769466920636F6E6E6563741E
:10080000206661696C65640D0A00000070B57F2286
:100810002A492B4801F0DEFA64230B2229A12D4836
:1008200001F0FDFA2CA12DA000F0C0F84FF4FA75EC
:100830004FF0640310B10B2222A101E01E2229A176
:10084000244801F0ECFA284601F0CAFE64230B228A
:100850002CA1204801F0E3FA00241FA12DA000F0F4
:10086000A5F828B9C82001F0BBFE641C032CF4DBFA
:1008700019A12AA000F09AF84FF0640310B11322D6
:100880002AA101E022222FA1124801F0C8FA28462D
:1008900001F0A6FE10A134A000F088F84FF0640328
:1008A00010B1112234A101E0202238A1094801F041
:1008B000B6FA2846BDE8704001F092BE94010020CF
:1008C0007C00002041542074657374204F4B0D0A46
:1008D00000000000C40000204F4B000041540D0AEE
:1008E0000000000041542074657374206661696CD7
:1008F00065642C207265747279696E672E2E2E0DD8
:100900000A00000041542074657374204F4B310D70
:100910000A000000415445300D0A000041542B43A9
:10092000574D4F44453D310D0A00000043574D4F90
:1009300044452073657420746F2031204F4B0D0A9D
:10094000000000005365742043574D4F4445206616
:1009500061696C65642C207265747279696E672EAA
:100960002E2E0D0A0000000041542B4357444843EB
:10097000503D312C310D0A004448435020656E61D2
:10098000626C6564204F4B0D0A00000053657420B3
:1009900044484350206661696C65642C207265741C
:1009A0007279696E672E2E2E0D0A00002DE9F04334
:1009B000A1B0894604464FF47A75FFF7B3FE20468E
:1009C000FFF722FD82B2C8232146394801F027FAF9
:1009D000322001F005FE374F00264FF4FA7842E04E
:1009E00000F086F800283BD0C82001F0F9FD3C88D3
:1009F0007F2C00D97F2422462F496846FFF723FD2C
:100A00000DF8046064230A222CA12F4801F007FA94
:100A100044B16846FFF7F8FC82B2434669462A486B
:100A200001F0FDF96423022228A1274801F0F7F91B
:100A3000B9F100000AD001466846FFF7D3FC28B19F
:100A4000FFF770FE012021B0BDE8F08320A16846C9
:100A5000FFF7C8FC20B100BFFFF764FE0020F2E7FB
:100A60000A2001F0BDFD6D1EADB2B9D23C887F2CCD
:100A700000D97F24224610496846FFF7E4FC0DF8B0
:100A800004606423152214A10F4801F0C8F944B191
:100A90006846FFF7B9FC82B2434669460A4801F04E
:100AA000BEF96423022209A1074801F0B8F9D3E78F
:100AB0007C00002010000020940100202D2D4553C3
:100AC000502052583A200000C40000200D0A0000B7
:100AD0004552524F520000002D2D45535020525880
:100AE000206F6E2074696D656F75743A2000000088
:100AF0000748018839B101884288914205D1002117
:100B00004180012070470020704701884180FAE74A
:100B10001000002072B6FEE710B590F821100022F8
:100B2000022905D00421816380F82020012010BD16
:100B300001680B6823F00E030B6001680B6823F05B
:100B400001030B6090F84030C46B012101FA03F3FC
:100B5000636080F8211080F82020104610BD00004E
:100B600010B590F821100024022903D004218163DC
:100B700001243DE001680A6822F00E020A60016863
:100B80000A6822F001020A601A4A0168914201D102
:100B9000012121E0174A1432914201D110211BE0BA
:100BA000144A2832914201D1891515E0114A3C328C
:100BB000914201D189140FE00E4A5032914202D184
:100BC0004FF4803108E00B4A6432914202D14FF475
:100BD000801101E04FF08071064A083A516001210E
:100BE00080F82110002180F82010416B01B1884766
:100BF000204610BD080002402DE9F05FC16B0C6873
:100C000001680B68D0F840C0042202FA0CF2494D8A
:100C1000DFF824A1494E4A4FDFF828B1DFF828E178
:100C200022422CD05A072AD50A68920603D40A68B1
:100C300022F004020A600168A94201D1042219E0ED
:100C4000514501D1402215E0B14202D14FF48062FA
:100C500010E0B94202D14FF480420BE0594502D175
:100C60004FF4802206E0714502D14FF4800201E08A
:100C70004FF080622F4908394A60C16A3BE04FF06B
:100C8000020808FA0CF818EA040F4FF000094FF0B8
:100C9000010235D05FEA837832D50B689B0605D414
:100CA0000B6823F00A030B6080F821200168A94239
:100CB00001D1022219E0514501D1202215E0B142B3
:100CC00002D14FF4007210E0B94202D14FF4005249
:100CD0000BE0594502D14FF4003206E0714502D1D4
:100CE0004FF4001201E04FF00072124908394A60D7
:100CF00080F82090816A00291AD0BDE8F05F08478B
:100D0000082505FA0CF5254212D01B0710D50B68F3
:100D100023F00E030B6090F84010C36B02FA01F150
:100D20005960826380F8212080F82090016BE2E70F
:100D3000BDE8F09F080002401C0002403000024065
:100D400044000240580002406C00024030B528B315
:100D500008C8134914221944B1FBF2F18900C16398
:100D600010498163022141771A6843F6F0718A4382
:100D7000D0E900142143D0E902452C432143046902
:100D800021434469214384692143114319600021AF
:100D90004163012242770177084630BD012030BD12
:100DA000F8FFFDBF0000024070B5044690F8200037
:100DB000002501280CD0012084F8200094F821603F
:100DC0000020012E06D084F820000225284670BDA0
:100DD000022070BD022684F82160A06320680668A6
:100DE00026F0010606602046FFF774FCE06A002842
:100DF0002068016802D041F00E0106E021F00401F4
:100E000001602068016841F00A0101602068016802
:100E100041F001010160D9E72DE9F84FDFF8B89101
:100E20000024A9F1040B23460F2709F1040AABF1B2
:100E3000040EC9E00125A5402A40AA427DD1674E93
:100E4000D1F804C0ACEB0608B44532D014DCBCF1D8
:100E5000030F3AD009DCBCF1000F2AD0BCF1010F1E
:100E60001CD0BCF1020F31D11DE0BCF1110F17D025
:100E7000BCF1120F2AD119E0B8F5881F19D006DC91
:100E8000B8F5803F15D0B8F5801F1FD111E0B8F537
:100E9000001F0ED0B8F5041F18D10AE0CB6815E08A
:100EA000CB681B1D12E0CB6808330FE0CB680C3316
:100EB0000CE08B682BB1012B4FF0080303D0456188
:100EC00004E0042302E0056100E00023FF2A01D8CA
:100ED000064601E000F104064FEA840501D9A5F1B8
:100EE0002005D6F8008007FA05FC28EA0C0803FA6A
:100EF00005F548EA0508C6F800804D68ED0062D5A2
:100F0000374DAE6946F00106AE61AD6924F00306C7
:100F100005F001050095334D06EB050CDCF8085093
:100F2000A607360F07FA06F825EA0805DFF8B880A5
:100F3000404503D14FF0000817E044E0DFF8AC80F3
:100F4000404502D14FF001080FE0DFF8A480404592
:100F500002D14FF0020808E0DFF89880404502D146
:100F60004FF0030801E04FF0040808FA06F848EAD9
:100F70000508CCF808804D68D9F80060ED024D46B0
:100F800001D5164300E096432E604D68DAF8006004
:100F9000AD02554601D5164300E096432E604D68DC
:100FA000DBF80060AD035D4601D5164300E09643D3
:100FB0002E604D68DEF80060ED03754601D51643DE
:100FC00000E096432E60641C0D682A46E5407FF4DD
:100FD00031AFBDE8F88F0000080401400000111097
:100FE000001002400000014000080140000C0140D8
:100FF0000010014000140140014880687047000063
:101000000000002002488168027811448160704726
:1010100000000020074810B5016841F01001016090
:10102000032000F075F80F2000F006F800F024F817
:10103000002010BD0020024070B50D4D04464FF455
:101040007A712878B1FBF0F00A490968B1FBF0F039
:1010500000F0DCFA48B9102C07D200222146501EBD
:1010600000F036F800206C6070BD012070BD0000FB
:10107000000000200C0000200C4808B5816941F0F8
:1010800001018161816901F001010091C16941F0B3
:101090008051C161C06900F08050009004484168EF
:1010A00021F0E06141F00071416008BD0010024094
:1010B00000000140002809DB00F01F0201219140DF
:1010C0004009800000F1E020C0F8001170470000E6
:1010D000F0B40E4B1B680C46C3F30223C3F10705A3
:1010E000042D00D90425191D072901D2002300E091
:1010F000DB1E012606FA05F1491E214099409E405B
:10110000761E16403143F0BC01F053BA0CED00E0FE
:10111000064900F0070208684FF6FF03184040EA4E
:101120000220034A10430860704700000CED00E005
:101130000000FA052DE9F0470F46050061D0434E47
:10114000306800F00700B84209D2306820F007008C
:1011500038433060306800F00700B84251D1286849
:101160003B4C810712D5400703D5606840F4E0602E
:1011700060602878000703D5606840F460506060C4
:101180006068A96820F0F000084360602878C00714
:1011900028D06868012810D02168022810D089075B
:1011A00000292EDA616821F0030101436160FFF735
:1011B00023FF804641F288390DE021688903EFE77B
:1011C0008901EDE7FFF718FFA0EB0801494502D9B7
:1011D0000320BDE8F0876068696800F00C00B0EBA0
:1011E000810FEFD1306800F00700B8420BD93068AA
:1011F00020F0070038433060306800F00700B84244
:1012000001D00120E5E72878400705D56068E96846
:1012100020F4E060084360602878000706D5606825
:10122000296920F4605040EAC100606000F038F89D
:101230006168084AC1F30311515CC840064908605F
:1012400006480068FFF7F8FE0020C2E700200240D1
:1012500000100240AE2600080C0000200400002010
:101260000448054900684968044AC1F30221515CF9
:10127000C84070470C00002000100240BE26000845
:101280000448054900684968044AC1F3C221515C19
:10129000C84070470C00002000100240BE26000825
:1012A0000E4A51680E4801F00C03042B11D0082B94
:1012B0000FD10C48C1F38343C903C05C0AD5516800
:1012C000084AC1F34041921E515C054A5043B0FBAD
:1012D000F1F0704704494843704700000010024095
:1012E00000127A009E26000800093D002DE9F84F03
:1012F000040070D02078C04DC00749D06868C0F3A2
:101300008100012807D06868C0F38100022809D154
:101310006868C00306D52868800339D5606800284E
:10132000E7D035E06068B0F5803F0BD010B1B0F584
:10133000A02F11D0286820F480302860286820F47D
:10134000802002E0286840F480302860606890B116
:10135000FFF752FE06460AE0286840F48020286025
:10136000F0E700BFFFF748FE801B642873D82868A9
:101370008003F7D50CE0FFF73FFE064605E000BF0F
:10138000FFF73AFE801B6428F0D828688003F7D462
:1013900020789A4E80074FF001094FF0000839D5A8
:1013A000686810F00C0F07D06868C0F3810002284D
:1013B00009D16868C00306D42868800714D520695D
:1013C000012808D110E02069B0B1C6F80090FFF7FD
:1013D00013FE074605E00AE1FFF70EFEC01B0228D8
:1013E000C4D828688007F7D52868616920F0F8001C
:1013F00040EAC10028600DE0C6F80080FFF7FCFD60
:10140000074604E0FFF7F8FDC01B022823D8286830
:101410008007F7D4207800072CD57948A169D9B185
:10142000C0F80090FFF7E8FD074604E0FFF7E4FD91
:10143000C01B02280FD8686A8007F7D571484FF49F
:10144000FA510068B0FBF1F0009000BF0098411E17
:101450000091FAD20EE080E0C0F80080FFF7CCFDEA
:10146000074604E0FFF7C8FDC01B022875D8686A6C
:101470008007F7D42078400760D5E8690027C000CE
:1014800008D4E86940F08050E861E869012700F07D
:10149000805000905C480168C90513D401688346F8
:1014A00041F480710160FFF7A7FD824606E000BFAE
:1014B000FFF7A2FDA0EB0A0064284ED8DBF800007D
:1014C000C005F5D5E06801280AD008B1052813D079
:1014D000286A20F001002862286A20F0040002E057
:1014E000286A40F001002862E06841F2883B98B128
:1014F000FFF782FD82460BE0286A40F00400286274
:10150000EEE700BFFFF778FDA0EB0A0159455AD876
:10151000286A8007F6D50CE0FFF76EFD824605E0ED
:10152000FFF76AFDA0EB0A0159454CD8286A8007ED
:10153000F6D41FB1E86920F08050E861E06988B313
:101540006968C1F38101022944D00228C6F860808D
:1015500004D0FFF751FD044638E034E0FFF74CFDBE
:10156000074604E0FFF748FDC01B02282BD8286877
:101570008001F7D4206AB0F5803F05D16868A16882
:1015800020F4003008436860D4E908010843696822
:1015900021F4741108436860C6F86090FFF72CFDD1
:1015A000044606E025E000BFFFF726FD001B0228E9
:1015B00009D828688001F7D51BE000BFFFF71CFDA4
:1015C000001B022802D90320BDE8F88F286880019B
:1015D000F4D40EE00128F7D06868226A00F4803164
:1015E000914204D1616A00F47010884201D0012058
:1015F000EAE70020E8E70000001002400000424255
:10160000800442420C0000200070004010B5401ED3
:10161000B0F1807F01D3012010BD4FF0E024606164
:101620000F21601700F0C5FF0020A0610720206196
:10163000002010BD7047704770B590F83C20012A1B
:1016400026D0012480F83C40022280F83D20036827
:101650005A689D6822F070060A6832435A600D4B42
:1016600002689A4208D0B2F1804F05D00A4B9A42E4
:1016700002D00A4B9A4204D1496825F080031943ED
:10168000916080F83D40002180F83C10084670BD14
:10169000022070BD002C0140000400400008004002
:1016A00010B5040003D094F83D0010B107E001200C
:1016B00010BD002084F83C00204600F01FF80220F6
:1016C00084F83D00211D206800F0E4FC012084F82E
:1016D000460084F83E0084F83F0084F8400084F817
:1016E000410084F8420084F8430084F8440084F800
:1016F000450084F83D00002010BD000008B50068DA
:101700000B49884212D10B48C16941F00401C16103
:10171000C069002200F00400009003211E20FFF7A2
:10172000D7FCBDE808401E20FFF7C4BC08BD000080
:10173000000800400010024070B5044690F83C00DC
:101740000025012817D0012684F83C60022084F887
:101750003D002068826822F0770222F47F42826096
:101760000868502838D00DDC20284FD005DC90B315
:10177000102811D14AE0022070BD302846D0402800
:101780000AD13BE060282FD070280DD0B0F5805FE3
:1017900003D0B0F5005F12D0012584F83D60002031
:1017A00084F83C00284670BDCB68D1E9012120684F
:1017B00000F0ACFC2068816841F0770109E0CB685B
:1017C000D1E90121206800F0A1FC2068816841F482
:1017D00080418160E1E719E0CA684968206800F04B
:1017E000A7FC5021206806E0CA684968206800F01C
:1017F000B0FC6021206800F093FCCEE7CA6849681D
:10180000206800F095FC40212068F4E7226801463A
:101810001046F0E770472DE9F04104460068C668BD
:1018200005694FF00007A90713D5B10711D5F91EB7
:10183000016101202077206880698007204602D05E
:10184000FFF7E8FF04E000F07EF8204600F07CF8A7
:101850002777680716D5700714D521686FF0040044
:101860000861022020772068806910F4407F2046BC
:1018700002D0FFF7CFFF04E000F065F8204600F04B
:1018800063F82777280715D5300713D521686FF03F
:1018900008000861042020772068C069800720467E
:1018A00002D0FFF7B7FF04E000F04DF8204600F04B
:1018B0004BF82777E80616D5F00614D521686FF0A7
:1018C00010000861082020772068C06910F4407F6C
:1018D000204602D0FFF79EFF04E000F034F82046D7
:1018E00000F032F82777E80708D0F00706D0216823
:1018F0006FF001000861204600F028F8280608D59E
:10190000300606D521686FF0800008612046FFF799
:1019100091FE680608D5700606D521686FF0400074
:101920000861204600F01EF8A8060AD5B00608D5C2
:1019300021686FF0200008612046BDE8F041FFF704
:101940007ABEBDE8F0817047704700000068034927
:10195000884202D102490120087070470008004007
:10196000140000207047704710B5044600684069B5
:1019700094F84110C0F3C010212911D180B1206822
:10198000143050E8001F21F0800140E80012002AC6
:10199000F5D1A06B08B1FFF7BFF8204600F091FC2D
:1019A0002068406994F84210C0F38010222911D1B8
:1019B00080B12068143050E8001F21F0400140E859
:1019C0000012002AF5D1E06B08B1FFF7A5F8204618
:1019D00000F050FC002010BD70470000F8B5016811
:1019E00004460868CA684B6910F00F0F4FF00005F5
:1019F00059D003F0010602F49077374365D0C10750
:101A000005D0D10503D5616C41F001016164410746
:101A100005D5D90703D0616C41F0020161648107EB
:101A200005D5D90703D0616C41F004016164010759
:101A300007D502F02001314303D0616C41F0080169
:101A40006164616C00293AD0800604D5900602D505
:101A5000204600F044FC20684069616CC0F38010AF
:101A6000090700D460B3204600F004FC20684069F8
:101A7000400621D52068143050E8001F21F04001B5
:101A800040E80012002AF5D1E06BA8B16D4941632E
:101A9000E06BFFF765F8002811D0E06B416B01B0F7
:101AA000BDE8F040084783060FD593060DD52046C4
:101AB000BDE8F84000F013BC2046FFF78DFFF8BDED
:101AC0002046FFF789FF6564F8BD266B2023012EB1
:101AD0007CD1C6067AD5D60678D5086848680090C5
:101AE00048694FF00206400640D5E16B086840683F
:101AF0000004000CE8D0A28D8242E5D9E085886917
:101B000020282DD020680C3050E8001F21F480716F
:101B100040E80012002AF5D12068143050E8001F78
:101B200021F0010140E80012002AF5D120681430AC
:101B300050E8001F21F0400140E80012002AF5D1D2
:101B400084F84230256320680C3050E8001F21F0F3
:101B5000100140E80012002AF5D1E06BFEF7DCFF2F
:101B60006663A08DE18D401A81B22AE0A08DE18DDF
:101B7000401A81B2E08D0028A6D00029A4D02268A6
:101B80000C3252E8000F20F4907042E80007002F5A
:101B9000F5D12068143050E8002F22F0010240E80F
:101BA0000027002FF5D184F84230256320680C30DF
:101BB00050E8002F22F0100240E80023002BF5D15E
:101BC00066632046FFF7CFFEF8BDFFE705062BD57D
:101BD000150629D594F841002128F5D1A068B0F563
:101BE000805F01D12069B0B1206A411C2162216867
:101BF00000784860E08C401E0004000CE084E3D1D3
:101C00002068C16821F08001C1602068C16841F08E
:101C10004001C160D8E7206A0088C0F3080048602E
:101C2000206A801C2062E5E74006CDD55006CBD562
:101C3000CA68204622F04002CA6084F8413000F0B1
:101C40003EF9C1E77721000870B5040004D094F88C
:101C50004100002510B106E0012070BD84F840501D
:101C6000204600F023F8242084F841002068C16851
:101C700021F40051C160204600F092FB2068016908
:101C800021F4904101612068416921F02A014161FC
:101C90002068C16841F40051C1606564202084F867
:101CA000410084F842006563002070BDF0B585B046
:101CB00000240094019402940394064603683F486C
:101CC0003D4D022103220715AB4250D1836943F4F5
:101CD00080438361836903F480430493836943F001
:101CE000040383618069364D00F00400049008020B
:101CF000CDE90001039269462846FFF78DF8CDE94A
:101D00000074694628460294FFF786F82E4D2D4848
:101D1000802701C5102091C52B4845F810496C61FA
:101D2000AC61EC61FFF712F808B1FEF7F3FEB563A2
:101D30006E62254D234844351430C5E90004C5E9D9
:101D400002472C616C61AC612846EC61FEF7FEFF36
:101D500008B1FEF7DFFEF5630022022125206E6246
:101D6000FFF7B6F92520FFF7A5F905B0F0BD174D2F
:101D7000AB42FAD1C36943F48023C361C36903F45E
:101D800080230493836943F0080383618069CDE96C
:101D9000007100F00800CDE903200D4D694628468A
:101DA000FFF73AF8E814CDE90004694628460294A2
:101DB000FFF732F8D9E70000003801400010024078
:101DC00000080140440002400C010020004800408F
:101DD000000C014090F84230202B01D002207047C7
:101DE00021B11AB10023036300F036BB0120704714
:101DF000074988420BD107487F210180064A0088A5
:101E0000002111547F2204490148FFF7E3BF7047C6
:101E10007C000020100000209401002070472DE974
:101E2000F843044690F84100984616460D4620288F
:101E300002D00220BDE8F88385B17EB10020606445
:101E4000212084F84100FFF7D7F8A6848146E68474
:101E5000A0682027B0F5805F02D003E00120E9E709
:101E6000206910B12E4600250EE000260CE08021EE
:101E7000204600F039FBA8B9C6B116F8010B21685D
:101E80004860E08C401EE084E08C4B464FF000023E
:101E9000CDF800800028EAD14FF04001204600F044
:101EA00023FB40B184F841700320C3E735F8020BEF
:101EB000C0F30800E3E784F841700020BAE77047F8
:101EC000FEE700000D4808B5416941F0010141619C
:101ED0004069002200F00100009011460E20FFF73B
:101EE000F7F80E20FFF7E6F8002211460F20FFF763
:101EF000EFF8BDE808400F20FFF7DCB80010024003
:101F00000D4808B5816941F020018161816901F0C6
:101F100020010091816941F008018161816901F02E
:101F200008010091816941F004018161806900F03C
:101F30000400009008BD00000010024010B586B0FB
:101F400000241748009401940294039404941349C4
:101F50000594016041F61F41C0E901144FF6FF717D
:101F6000C0E903148461FFF79BFB08B1FEF7D2FDC3
:101F70004FF48050009069460948FFF7DDFB08B137
:101F8000FEF7C8FD049404A905480594FFF754FB27
:101F9000002801D0FEF7BEFD06B010BD00080040CD
:101FA0003400002010B50E4C0C480C2120604FF47A
:101FB000E13060600020A060E060C4E90401A0613D
:101FC000E0612046FFF740FE08B1FEF7A3FD206860
:101FD000C16841F01001C16010BD0000003801402F
:101FE0007C0000200C4810B50A4901604FF4E13133
:101FF0004160002181600C22C160C0E9041281614E
:10200000C161FFF721FE002803D0BDE81040FEF7B4
:1020100081BD10BD00480040C4000020FEE7FEE77F
:1020200070477047FEF7EEBF30B58FB02821684685
:10203000FEF7A2FA14210AA8FEF79EFA012108046D
:10204000CDE900100024029402250491CDE9075047
:102050004FF4E01009906846FFF748F908B172B6EE
:10206000FEE70F20CDE90A054FF48060CDE90C4072
:1020700002210AA80E94FFF75DF8002801D072B67D
:10208000FEE70FB030BD70470148FFF7C4BB00004A
:1020900034000020F0B50268194B1A4C1A4D4FF06D
:1020A0008047984205D0B84203D0A04201D0A84250
:1020B00003D122F070064A683243984205D0B842F4
:1020C00003D0A04201D0A84203D122F44074CA68D0
:1020D00022434C6922F08002224302608A68C26275
:1020E0000A688262984201D1096901630121416154
:1020F0000169C90703D0016921F001010161F0BD47
:10210000002C0140000400400008004010B5846825
:1021100042EA032224F47F440A432243826010BD32
:10212000826822F070020A4342F007018160704722
:1021300010B5036A046A24F001040462846924F07F
:10214000F00444EA021423F00A020A4384610262A2
:1021500010BD10B5036A046A24F010040462846997
:1021600023F0A00324F4704444EA023243EA01114C
:102170008261016210BD10B5406A0021C185C18431
:10218000FFF72AFC10BD70B5446A2068406994F8D6
:102190004110C0F3C0100025212904D118B1E584F5
:1021A000204600F08EF82068406994F84210C0F391
:1021B0008010222904D118B1E585204600F05AF894
:1021C000606C40F0100060642046FFF705FC70BDB5
:1021D00010B50146406A096809684FF00002890697
:1021E0002ED4C28501680C3151E8003F23F480737E
:1021F00041E80034002CF5D10168143151E8003F6A
:1022000023F0010341E80034002CF5D101681431BA
:1022100051E8003F23F0400341E80034002CF5D1A1
:10222000202180F84210016B012909D101680C318D
:1022300051E8003F23F0100341E80034002CF5D1B1
:102240004263016B012902D0FFF7D2FD10BD818DE1
:10225000FFF789FB10BD10B5406A01214163016B96
:10226000012902D0FFF7DAFD10BD818D4908FFF783
:102270007AFB10BD01680C3151E8002F22F49072F6
:1022800041E80023002BF5D10168143151E8002FFB
:1022900022F0010241E80023002BF5D1016B012956
:1022A00009D101680C3151E8002F22F0100241E8F9
:1022B0000023002BF5D1202180F84210002101637A
:1022C000704701680C3151E8002F22F0C00241E84C
:1022D0000023002BF5D1202180F84110704708B56C
:1022E00090F84210222901D0022008BD82684FF4E4
:1022F00080539A4201D1016921B1816A9A421BD06F
:102300004AB10AE00268816A5268C2F308020A8090
:10231000816A891C08E0026972B10268526802F0A1
:102320007F020A70816A491C8162C18D491E0904BD
:10233000090CC18503D01BE002685268F1E701680F
:10234000CA6822F02002CA600168CA6822F480725A
:10235000CA6001684A6922F001024A61202180F8BE
:10236000421000214163026B012A03D0FFF740FDB8
:10237000002008BD016301680C3151E8002F22F0F4
:10238000100241E80023002BF5D101680A68D2064B
:1023900002D50A6849680091818DFFF7E4FAE7E702
:1023A00070B5044600680169E26821F440511143A8
:1023B00001612169A0680843616908432168CA680E
:1023C00041F20C639A430243CA6020684169A269E2
:1023D00021F44071114341611E492068884202D1B5
:1023E000FEF74EFF01E0FEF73BFF00EBC00101EB03
:1023F0000012606864218000B2FBF0F3B3FBF1F3DC
:102400006FF018067343B2FBF0F5B2FBF0F605EB84
:102410008305322303EB0515B5FBF1F5B6FBF1F6A9
:1024200005F0F00505EB0615B2FBF0F6B2FBF0F097
:10243000B0FBF1F06FF01802504306EB800003EBA5
:102440000010B0FBF1F0216800F00F002844886014
:1024500070BD00000038014038B5816204468285B5
:10246000002013466064222284F84220E56B1B4A58
:10247000AA62E56B1A4AEA62E56B1A4A2A63E26BC2
:1024800050630A462168E06B091DFEF78DFC206849
:10249000016840680090206948B120680C3050E81D
:1024A000001F41F4807140E80012002AF5D1206835
:1024B000143050E8001F41F0010140E80012002AEA
:1024C000F5D12068143050E8001F41F0400140E889
:1024D0000012002AF5D1002038BD0000D1210008EB
:1024E00057220008872100082DE9F843984617462F
:1024F0000D460446089E24E0701C22D0FEF77CFDA9
:10250000A0EB0800B0421AD8CEB12068C1684907D4
:1025100017D5802D15D0402D13D00168C943090768
:102520000FD401680025406800902046FFF7A2FE06
:102530000820606484F840500120BDE8F88303203F
:10254000FBE72068006835EA000004D00020B842AC
:10255000D2D00020F1E70120F9E7000038B5114C96
:1025600020680168C90617D50168002540680090F9
:102570002046FFF7F9F9E06B00684068C0F17F0082
:1025800080B27F2800D97F200749088007490D5471
:102590007F220448FFF71EFCBDE838400148FFF7E2
:1025A0001DBA00007C0000201000002094010020D3
:1025B000FEE70907090E002804DB00F1E02080F89F
:1025C0000014704700F00F0000F1E02080F8141DA7
:1025D000704730380A2801D2012070470020704728
:1025E00070B5054600244FF47A7603E0304600F0DB
:1025F00005F8641CAC42F9D370BD00000B490968B2
:1026000048434FF0E021486100228A61086940F0A8
:10261000010008610869C30701D0C003FAD5086941
:1026200020F0010008618A61704700002C00002042
:102630000024FEF7EFFCFFF7F7FCFFF761FCFFF764
:1026400041FCFFF7AFFCFFF7CDFCFFF777FCFEF78F
:1026500057F8FEF7DBF84FF47A750CE06423142288
:1026600007A10D48FFF7DBFB641CE4B22846FFF727
:10267000B7FF052C03D2FEF763F80028EED0FEE783
:102680005769466920636F6E6E6563742072657466
:1026900072790D0A00000000C4000020010202034C
:1026A0000405060708090A0B0C0D0E0F1010000098
:1026B00000000000000001020304060708090000F2
:1026C00000000102030404000008000000000000F4
:1026D0000002000100001000F826000800000020A1
:1026E00034000000280100082C27000834000020D6
:1026F0004408000044010008010000001000000030
:102700000000000000127A0000000000000000003D
:1027100000000000000000000000000000000000B9
:0C272000000000000000000000000000AD
:04000005080000ED02
:00000001FF
