:020000040800F2
:10000000B8040020010100084B1300087910000813
:10001000491300080F020008BB1700080000000089
:10002000000000000000000000000000DD150008D6
:100030001102000800000000B1140008DF150008DC
:100040001B0100081B0100081B0100081B01000820
:100050001B0100081B0100081B0100081B01000810
:100060001B0100081B0100081B0100081B01000800
:100070001B0100081B0100081B0100081B010008F0
:100080001B0100081B0100081B0100081B010008E0
:100090001B0100081B0100081B0100081B010008D0
:1000A0001B0100081B0100081B0100081B010008C0
:1000B0001B0100081B0100081B0100081B010008B0
:1000C0001B0100081B0100081B010008B5140008F3
:1000D0001B0100081B0100081B0100081B01000890
:1000E0001B0100081B0100081B010008DFF80CD0F1
:1000F00000F06CF800480047991C0008B804002084
:100100000648804706480047FEE7FEE7FEE7FEE7B1
:10011000FEE7FEE7FEE7FEE7FEE7FEE74116000822
:10012000ED000008202A04DB203A21FA02F0002129
:10013000704721FA02F3D040C2F1200291400843F7
:1001400019467047D2B201E000F8012B491EFBD2DC
:1001500070470022F6E710B513460A4604461946D2
:10016000FFF7F0FF204610BD2DE9F05F05460020A7
:1001700092469B4688460646814640241BE0284618
:10018000414647462246FFF7CDFF53465A46C01A1E
:10019000914110D311461846224600F029F82D1A35
:1001A00067EB01084F4622460120002100F020F8AD
:1001B00017EB00094E41201EA4F10104DFDC484684
:1001C00031462A464346BDE8F09F0000064C074DE5
:1001D00006E0E06840F0010394E807009847103417
:1001E000AC42F6D3FFF786FF481D0008681D0008E3
:1001F000202A04DB203A00FA02F1002070479140E7
:10020000C2F1200320FA03F3194390407047FEE740
:10021000704772B6FEE7000010B590F82110002478
:10022000022903D00421816301243DE001680A68AA
:1002300022F00E020A6001680A6822F001020A60D8
:100240001A4A0168914201D1012121E0174A143272
:10025000914201D110211BE0144A2832914201D170
:10026000891515E0114A3C32914201D189140FE001
:100270000E4A5032914202D14FF4803108E00B4ACD
:100280006432914202D14FF4801101E04FF080714D
:10029000064A083A5160012180F82110002180F8B7
:1002A0002010416B01B18847204610BD0800024074
:1002B00070B5044600F004F90546601C02D00448FD
:1002C0000078044400F0FCF8401BA042FAD370BD53
:1002D000000000202DE9F84FDFF8B8910024A9F1C3
:1002E000040B23460F2709F1040AABF1040EC9E001
:1002F0000125A5402A40AA427DD1674ED1F804C00D
:10030000ACEB0608B44532D014DCBCF1030F3AD094
:1003100009DCBCF1000F2AD0BCF1010F1CD0BCF1EC
:10032000020F31D11DE0BCF1110F17D0BCF1120F3B
:100330002AD119E0B8F5881F19D006DCB8F5803F3E
:1003400015D0B8F5801F1FD111E0B8F5001F0ED0F1
:10035000B8F5041F18D10AE0CB6815E0CB681B1D67
:1003600012E0CB6808330FE0CB680C330CE08B68ED
:100370002BB1012B4FF0080303D0456104E00423A7
:1003800002E0056100E00023FF2A01D8064601E0F3
:1003900000F104064FEA840501D9A5F12005D6F83D
:1003A000008007FA05FC28EA0C0803FA05F548EA7C
:1003B0000508C6F800804D68ED0062D5374DAE697E
:1003C00046F00106AE61AD6924F0030605F00105B3
:1003D0000095334D06EB050CDCF80850A607360FE8
:1003E00007FA06F825EA0805DFF8B880404503D18A
:1003F0004FF0000817E044E0DFF8AC80404502D140
:100400004FF001080FE0DFF8A480404502D14FF023
:10041000020808E0DFF89880404502D14FF0030859
:1004200001E04FF0040808FA06F848EA0508CCF89D
:1004300008804D68D9F80060ED024D4601D516439D
:1004400000E096432E604D68DAF80060AD02554634
:1004500001D5164300E096432E604D68DBF800603E
:10046000AD035D4601D5164300E096432E604D680E
:10047000DEF80060ED03754601D5164300E09643B3
:100480002E60641C0D682A46E5407FF431AFBDE85C
:10049000F88F000008040140000011100010024015
:1004A0000000014000080140000C01400010014024
:1004B000001401400AB1016170470904FBE7000024
:1004C00001488068704700000000002002488168F1
:1004D000027811448160704700000020074810B581
:1004E000016841F010010160032000F075F80F2051
:1004F00000F006F800F024F8002010BD00200240B3
:1005000070B50D4D04464FF47A712878B1FBF0F0C8
:100510000A490968B1FBF0F000F0E0FC48B9102C82
:1005200007D200222146501E00F036F800206C60F1
:1005300070BD012070BD0000000000200C000020F4
:100540000C4808B5816941F001018161816901F0C0
:1005500001010091C16941F08051C161C06900F0A1
:10056000805000900448416821F0E06141F0007142
:10057000416008BD0010024000000140002809DB76
:1005800000F01F02012191404009800000F1E020AD
:10059000C0F8001170470000F0B40E4B1B680C4609
:1005A000C3F30223C3F10705042D00D90425191D47
:1005B000072901D2002300E0DB1E012606FA05F11F
:1005C000491E214099409E40761E16403143F0BCA2
:1005D00001F004B90CED00E0064900F007020868DC
:1005E0004FF6FF03184040EA0220034A1043086018
:1005F000704700000CED00E00000FA052DE9F0471F
:100600000F46050061D0434E306800F00700B84245
:1006100009D2306820F0070038433060306800F0BD
:100620000700B84251D128683B4C810712D54007DA
:1006300003D5606840F4E06060602878000703D567
:10064000606840F4605060606068A96820F0F00065
:10065000084360602878C00728D06868012810D057
:100660002168022810D0890700292EDA616821F05C
:10067000030101436160FFF723FF804641F288399F
:100680000DE021688903EFE78901EDE7FFF718FF27
:10069000A0EB0801494502D90320BDE8F087606856
:1006A000696800F00C00B0EB810FEFD1306800F00A
:1006B0000700B8420BD9306820F00700384330609B
:1006C000306800F00700B84201D00120E5E7287843
:1006D000400705D56068E96820F4E0600843606081
:1006E0002878000706D56068296920F4605040EA40
:1006F000C100606000F038F86168084AC1F3031176
:10070000515CC8400649086006480068FFF7F8FEDB
:100710000020C2E700200240001002402E1D000809
:100720000C000020040000200448054900684968C6
:10073000044AC1F30221515CC84070470C000020FC
:10074000001002403E1D0008044805490068496841
:10075000044AC1F3C221515CC84070470C0000201C
:10076000001002403E1D00080E4A51680E4801F07C
:100770000C03042B11D0082B0FD10C48C1F3834379
:10078000C903C05C0AD55168084AC1F34041921EB2
:10079000515C054A5043B0FBF1F0704704494843AF
:1007A000704700000010024000127A001E1D000871
:1007B00000093D002DE9F84F040070D02078C04DAD
:1007C000C00749D06868C0F38100012807D0686875
:1007D000C0F38100022809D16868C00306D52868E3
:1007E000800339D560680028E7D035E06068B0F54F
:1007F000803F0BD010B1B0F5A02F11D0286820F4A5
:1008000080302860286820F4802002E0286840F4C6
:1008100080302860606890B1FFF752FE06460AE01B
:10082000286840F480202860F0E700BFFFF748FE0A
:10083000801B642873D828688003F7D50CE0FFF785
:100840003FFE064605E000BFFFF73AFE801B642826
:10085000F0D828688003F7D420789A4E80074FF0AC
:1008600001094FF0000839D5686810F00C0F07D067
:100870006868C0F38100022809D16868C00306D403
:100880002868800714D52069012808D110E0206964
:10089000B0B1C6F80090FFF713FE074605E00AE185
:1008A000FFF70EFEC01B0228C4D828688007F7D5C2
:1008B0002868616920F0F80040EAC10028600DE076
:1008C000C6F80080FFF7FCFD074604E0FFF7F8FDDF
:1008D000C01B022823D828688007F7D42078000797
:1008E0002CD57948A169D9B1C0F80090FFF7E8FD8F
:1008F000074604E0FFF7E4FDC01B02280FD8686A32
:100900008007F7D571484FF4FA510068B0FBF1F059
:10091000009000BF0098411E0091FAD20EE080E0E6
:10092000C0F80080FFF7CCFD074604E0FFF7C8FDE4
:10093000C01B022875D8686A8007F7D42078400762
:1009400060D5E8690027C00008D4E86940F080500D
:10095000E861E869012700F0805000905C48016878
:10096000C90513D40168834641F480710160FFF723
:10097000A7FD824606E000BFFFF7A2FDA0EB0A003C
:1009800064284ED8DBF80000C005F5D5E0680128E2
:100990000AD008B1052813D0286A20F00100286287
:1009A000286A20F0040002E0286A40F00100286272
:1009B000E06841F2883B98B1FFF782FD82460BE088
:1009C000286A40F004002862EEE700BFFFF778FDD8
:1009D000A0EB0A0159455AD8286A8007F6D50CE0E1
:1009E000FFF76EFD824605E0FFF76AFDA0EB0A0106
:1009F00059454CD8286A8007F6D41FB1E86920F021
:100A00008050E861E06988B36968C1F38101022917
:100A100044D00228C6F8608004D0FFF751FD044698
:100A200038E034E0FFF74CFD074604E0FFF748FDEF
:100A3000C01B02282BD828688001F7D4206AB0F5A3
:100A4000803F05D16868A16820F4003008436860E1
:100A5000D4E908010843696821F474110843686007
:100A6000C6F86090FFF72CFD044606E025E000BFC5
:100A7000FFF726FD001B022809D828688001F7D55A
:100A80001BE000BFFFF71CFD001B022802D903205A
:100A9000BDE8F88F28688001F4D40EE00128F7D073
:100AA0006868226A00F48031914204D1616A00F4DE
:100AB0007010884201D00120EAE70020E8E700003A
:100AC0000010024000004242800442420C0000201C
:100AD000007000407047000038B504460068426866
:100AE0008168C9434B0606D5CB0704D1D3435B06C7
:100AF00001D4216C05E08B0708D4D3431B0605D431
:100B0000616C01B02046BDE8304008478B0601D536
:100B10004B0646D4D3439B0643D44B060AD494F8E1
:100B20005130032B3ED0636D43F004036365C3680B
:100B300083680093890609D4616D41F00101616504
:100B400081680091016821F040010160606D00281A
:100B500027D02068416821F0E0014160012084F83D
:100B60005100900722D02068416821F003014160C4
:100B7000104DE06C40B14563E06CFFF74DFB18B1E0
:100B8000606D40F040006065A06C002809D04563AE
:100B9000A06CFFF741FB002803D0606D40F04000DF
:100BA000606538BDC1688068009038BD2046FFF799
:100BB00091FF38BDE114000870B5040009D0606AE7
:100BC000002540B125616561A56294F8510040B1EE
:100BD0000CE0012070BD6068B0F5827FF4D0E56163
:100BE000F2E784F85050204600F040F8022084F8E4
:100BF00051002068016821F040010160A08821892E
:100C000000F4827001F404410843A18901F40061F9
:100C10000843217C01F002010843217D01F001011C
:100C20000843218B01F400710843217F01F0380152
:100C3000084394F8201001F080010843218D01F44D
:100C40000051084321680860A069042101EA1040AE
:100C5000216848602068C16921F40061C16165654F
:100C6000012084F85100002070BD000030B585B02F
:100C70000024009401940294039400681849884267
:100C80002BD11848816941F480518161816901F457
:100C900080510491816941F0040181618069124DA4
:100CA00000F004000490A020009002200190032096
:100CB000039069462846FFF70DFB4020CDE900046C
:100CC000694628460294FFF705FB002211462320BF
:100CD000FFF762FC2320FFF751FC05B030BD000098
:100CE0000030014000100240000801402DE9FF4F94
:100CF00081B01D46934604464FF001090E9EFFF752
:100D0000DFFB074694F851006168012806D0B1F571
:100D1000827F3CD1A168C9BB042838D10298002841
:100D200071D0BBF1000FFBD0002DF9D094F850002A
:100D300001282CD04FF0010A84F850A094F85100FB
:100D4000042802D0052084F851004FF00008C4F8B0
:100D50005480C4F838B0E587A58702992163E586F9
:100D6000A586C4F84080C4F844802068016849061C
:100D700003D4016841F040010160E068B0F5006F04
:100D8000606808D0F0B3012D49D081E0FFE7022070
:100D900005B0BDE8F08F08B1012D39D1206B216875
:100DA0000088C860206B801C2063E08E401EE086B7
:100DB0002EE02068816889070FD5E18E69B1B9F10D
:100DC000010F0AD1216B0988C160206B801C206350
:100DD000E08E401EE0864FF0000920688168C90758
:100DE0000CD0E18F51B1C068A16B0880A06B801C52
:100DF000A063E08F401EE0874FF00109FFF760FB22
:100E0000C01B01E00BE067E0B04201D3701C50D181
:100E1000E08E0028CDD1E08F0028CAD13EE0206BC3
:100E2000216800780873206B401C2063E08E401E10
:100E3000E0862DE02068816889070FD5E18E69B1D1
:100E4000B9F1010F0AD1216B09780173206B401CA5
:100E50002063E08E401EE0864FF000092068816824
:100E6000C9070CD0E18F51B1C068A16B0870A06BAD
:100E7000401CA063E08F401EE0874FF00109FFF7A0
:100E80001FFBC01BB04202D3701C01D011E086B121
:100E9000E08E0028CED1E08F0028CBD13A463146F3
:100EA000204600F025FB50B12020606584F850807A
:100EB00012E084F851A084F85080032068E7A0680D
:100EC00018B92068C1688068009084F851A084F83F
:100ED0005080606D0028F1D0012059E710B5401E08
:100EE000B0F1807F01D3012010BD4FF0E02460619C
:100EF0000F21601700F072FC0020A0610720206124
:100F0000002010BD70B5040004D094F84100002505
:100F100010B106E0012070BD84F84050204600F07A
:100F200023F8242084F841002068C16821F400518E
:100F3000C160204600F0ACFB2068016921F49041BB
:100F400001612068416921F02A0141612068C1687E
:100F500041F40051C1606564202084F8410084F8A8
:100F600042006563002070BD30B585B00024009458
:100F700001940294039400681449884224D11448CF
:100F8000816941F480418161816901F4804104916A
:100F9000816941F00401816180690E4D00F0040017
:100FA00004904FF400700090022001900320039001
:100FB00069462846FFF78EF92815CDE900046946F1
:100FC00028460294FFF786F905B030BD003801408D
:100FD00000100240000801402DE9F843044690F853
:100FE0004100984616460D46202802D00220BDE852
:100FF000F88385B17EB100206064212084F841002F
:10100000FFF75EFAA6848146E684A0682027B0F543
:10101000805F02D003E00120E9E7206910B12E468D
:1010200000250EE000260CE08021204600F08CFB1D
:10103000A8B9C6B116F8010B21684860E08C401EC3
:10104000E084E08C4B464FF00002CDF80080002891
:10105000EAD14FF04001204600F076FB40B184F821
:1010600041700320C3E735F8020BC0F30800E3E743
:1010700084F841700020BAE7FEE770B50C460546DB
:1010800000F098F820EA04012846BDE8704000F01E
:10109000B9B800002DE9FF5F0027FE25DDF838A074
:1010A00016468B468146B8460C2805D0B9F10E0F7E
:1010B00005D11227102001E077273020804647F025
:1010C0008001022000F09EF880210420FFF7D5FF68
:1010D0000021012000F096F880210A2000F086F817
:1010E000002405E01BF80410092000F08BF8641CB4
:1010F000B442F7D34946012000F084F8B9F10C0F4F
:1011000003D180210D2000F071F8294E042000F059
:1011100051F80446761E04D0E00702D114EA080F05
:10112000F4D080210D20FFF7A8FF36B1062000F093
:1011300041F810F01B0F0CD0FE2580210C2000F090
:1011400055F80021012000F05DF804B02846BDE804
:10115000F09F00253C40E00700D0FF25B9F10C0FBF
:10116000EBD10A2000F026F804460C2000F022F80B
:1011700010F007004FEAC40104D008390844AAF867
:10118000000001E0AAF8001024B1122C04D91224A6
:10119000002603E00124FBE7002605E0092000F01B
:1011A00009F803998855761CA642F7D3C5E70000D5
:1011B000E093040070B57E2101EA40000A4D40F042
:1011C0008004002210212846FFF774F9204600F021
:1011D00077F9002000F074F9044601221021284616
:1011E000FFF768F9204670BD0008014070B50C4655
:1011F0000546FFF7DFFF40EA04012846BDE87040DE
:10120000AFF3008070B50E467E2101EA4004094D1F
:10121000002210212846FFF74DF9204600F050F932
:10122000304600F04DF92846BDE8704001221021FB
:10123000FFF740B900080140F0B585B000200090EC
:101240000190029003901D48816941F02001816165
:10125000816901F020010491816941F004018161FB
:10126000816901F004010491816941F00801816103
:101270008069134E00F008000490012210213046CE
:10128000FFF718F90F4F012211463846FFF712F900
:1012900001241020CDE90004032569463046CDE93C
:1012A0000245FFF717F80094694638460194CDE9E6
:1012B0000245FFF70FF805B0F0BD00000010024036
:1012C00000080140000C0140104810B50E490160B3
:1012D0004FF48271416000218160C1604FF400725F
:1012E0000161C0E905121822C0E90721416281624B
:1012F0000A21C162FFF760FC002803D0BDE810405E
:10130000FEF787BF10BD0000003001401400002030
:101310000C4810B50A4901604FF4E13141600021E9
:1013200081600C22C160C0E904128161C161FFF7D4
:10133000E9FD002803D0BDE81040FEF76ABF10BDEC
:10134000003801406C000020FEE7FEE70321142076
:10135000FFF793BE10B51420FFF72CFF800705D1CF
:101360000321BDE810401420FFF740BF10BD70B549
:101370000646082188B000240846FFF77EFE0021BB
:101380000D20FFF73FFF80210E20FFF776FE932010
:101390008DF8040020208DF8050006A801AB009010
:1013A000022219460C20FFF775FE05000DD1002121
:1013B00001A8425C7254425C491C5440C9B20429E1
:1013C000F7D3405CA04200D0FE2580210E20FFF71D
:1013D0000DFF08B0284670BD30B50C460546082103
:1013E00087B00846FFF749FE07210D20FFF70AFFE7
:1013F00003211420FFF7FAFE06A801AB00908DF838
:101400000450012219460C20FFF744FE002809D1A0
:10141000BDF81810102905D19DF8041021709DF811
:101420000510617007B030BD10B5204C0122114687
:101430002046FFF73FF80220FEF73AFF0022012185
:101440002046FFF737F80220FEF732FF012211464F
:101450002046FFF72FF80220FEF72AFF0F21012078
:10146000FFF7D0FE0220FEF723FF3D211120FFF7FA
:10147000C9FE1E212D20FFF7C5FE00212C20FFF7FD
:10148000C1FE8D212A20FFF7BDFE3E212B20FFF754
:10149000B9FE40211520FFF7B5FEFFF757FF0220E8
:1014A000FEF706FFBDE81040FFF754BF000C0140F7
:1014B000704700000148FFF70FBB00001400002038
:1014C00001B582B00A200090012301AA02A90348B5
:1014D000FFF70CFC9DF804000EBD00001400002076
:1014E00010B5406A0021C187C186FFF7F3FA10BD2D
:1014F000F8B515460E460B4600920446012202211D
:1015000000F010F840B933460022802120460095B3
:1015100000F008F8002804D0606D40F020006065FD
:101520000320F8BD2DE9F8431E469146884604463F
:10153000089DFEF7C5FF401B351AFEF7C1FF0746A1
:1015400025480068C0F3CB30684338E0701C37D0C2
:10155000FEF7B6FFC01BA84203D215B1009860B3D6
:101560002CE02068416821F0E00141606068B0F53E
:10157000827F0BD1A068B0F5004F02D0B0F5806F2C
:1015800004D12068016821F040010160A06AB0F533
:10159000005F09D12068016821F4005101602068D2
:1015A000016841F400510160012084F851000020DD
:1015B00084F850000320BDE8F8830025401E009009
:1015C0002068816838EA010004D000214945BDD176
:1015D0000020F0E70121F9E70C0000207047FEF73A
:1015E00075BF30B58FB028216846FEF7B2FD1421D3
:1015F0000AA8FEF7AEFD01210804CDE90010002481
:10160000029402250491CDE907504FF4E0100990AF
:101610006846FFF7CFF808B172B6FEE70F20CDE9B4
:101620000A054FF48060CDE90C4002210AA80E940F
:10163000FEF7E4FF002801D072B6FEE70FB030BD20
:10164000704701680C3151E8002F22F4907241E894
:101650000023002BF5D10168143151E8002F22F04E
:10166000010241E80023002BF5D1016B012909D1CA
:1016700001680C3151E8002F22F0100241E80023EC
:10168000002BF5D1202180F8421000210163704722
:1016900070B5044600680169E26821F440511143C5
:1016A00001612169A0680843616908432168CA682B
:1016B00041F20C639A430243CA6020684169A269FF
:1016C00021F44071114341611E492068884202D1D2
:1016D000FFF73AF801E0FFF727F800EBC00101EB54
:1016E0000012606864218000B2FBF0F3B3FBF1F3F9
:1016F0006FF018067343B2FBF0F5B2FBF0F605EBA2
:101700008305322303EB0515B5FBF1F5B6FBF1F6C6
:1017100005F0F00505EB0615B2FBF0F6B2FBF0F0B4
:10172000B0FBF1F06FF01802504306EB800003EBC2
:101730000010B0FBF1F0216800F00F002844886031
:1017400070BD0000003801402DE9F8439846174667
:101750000D460446089E24E0701C22D0FEF7B0FE21
:10176000A0EB0800B0421AD8CEB12068C168490782
:1017700017D5802D15D0402D13D00168C943090716
:101780000FD401680025406800902046FFF759FFFC
:101790000820606484F840500120BDE8F8830320ED
:1017A000FBE72068006835EA000004D00020B8425A
:1017B000D2D00020F1E70120F9E7FEE70FB4054B96
:1017C00010B503A9044A029800F028F810BC5DF88F
:1017D00014FB0000811C0008100000200907090EFE
:1017E000002804DB00F1E02080F80014704700F0CE
:1017F0000F0000F1E02080F8141D704702E008C8D7
:10180000121F08C1002AFAD170477047002001E07A
:1018100001C1121F002AFBD1704700002DE9FF4FC4
:101820008DB00F460546002606E025280BD0DDE9E1
:101830000F1290476D1C761C28780028F5D111B046
:101840003046BDE8F08F0024A246A1460122EC49B3
:1018500000E0044315F8013F203B02FA03F0084280
:10186000F7D128782A2810D06FF02F022878A0F11D
:101870003001092914D80AEB8A0102EB410144F036
:10188000020400EB010A6D1CF0E701CF5FEA000AD9
:1018900003D544F40054CAF1000A44F002046D1C5C
:1018A00028782E2817D115F8010F44F004042A28AF
:1018B0000ED06FF02F022878A0F1300109290AD844
:1018C00009EB890102EB410100EB01096D1CF2E714
:1018D00057F8049B6D1C28786C280FD006DC4C2828
:1018E00017D068280DD06A2814D104E0742810D0CD
:1018F0007A280FD10DE044F400140AE044F4801477
:1019000001E044F440146978814202D104F5801466
:101910006D1C6D1C2A786E2A1FD00CDC632A31D016
:1019200004DC002A8BD0582A11D1A3E0642A68D0A5
:10193000692A0CD165E0732A2ED004DC6F2A73D09B
:10194000702A04D19BE0752A6FD0782A6ED0104699
:10195000DDE90F129047761C50E1C4F302500228D3
:1019600006D0032809D0042801CF09D0066045E13C
:1019700001CFF117C0E9006140E101CF06803DE1F0
:1019800006703BE117F8040B8DF8000000208DF87D
:101990000100EB46012003E057F804BB4FF0FF3095
:1019A00061074FF0000102D40DE008F10101884603
:1019B00049450FDA8045F8DB1BF808100029F4D1FF
:1019C00008E008F1010188468142FADB1BF80810A3
:1019D0000029F6D1DDE90F23AAEB08008146214654
:1019E00000F036F9304400EB080604E0DDE90F12A0
:1019F0001BF8010B9047B8F10108F7D22146484681
:101A0000F7E00A21C4F302534FF0000B0891022BB8
:101A100004D001CFC117032B09D00AE0FF1D27F026
:101A20000707F7E8020108E032E01FE020E000B21B
:101A3000C117042B01D140B2C117031E71F100037D
:101A400007DA4FF0000CD0EB0C006CEB01012D23FA
:101A500002E0230504D52B238DF82430012303E075
:101A6000E30701D02023F7E7984658E00A2110E069
:101A700010210EE010204FF0000B08900CE0102118
:101A80004FF0000B44F004044FF00809089103E004
:101A900008214FF0000B0891C4F30253022B04D02D
:101AA00001CF0021032B06D006E0FF1D27F007071A
:101AB000F7E8020103E080B2042B00D1C0B24FF07E
:101AC000000823072BD5702A07D0DDF820C08CF042
:101AD000100C5CEA0B0C05D00EE040238DF824308E
:101AE000012308E050EA010306D030238DF82430AA
:101AF0008DF8252002239846DDF820C08CF0080CD4
:101B00005CEA0B0C0BD150EA010301D1630706D547
:101B100030238DF824304FF00108A9F10109582A2B
:101B200004D038A20B9208AA0A920BE03AA2F9E775
:101B30005B46089AFEF718FB0B9B9B5C0A9A521EA9
:101B40000A92137050EA0102F2D10A98ADEB00003C
:101B500000F1200B600702D524F4803401E04FF03F
:101B60000109D94502DDA9EB0B0000E0002000EBE4
:101B70000B0141440890AAEB010AE00306D4DDE919
:101B80000F232146504600F063F806444FF0000949
:101B900008E009A911F80900DDE90F12904709F1E1
:101BA0000109761CC145F4DBE0030CD5DDE90F2308
:101BB0002146504600F04CF8064404E0DDE90F12DF
:101BC00030209047761C0899481E08900029F5DCC3
:101BD00008E00A980A990078491C0A91DDE90F1279
:101BE0009047761CBBF10001ABF1010BF1DC214603
:101BF0005046DDE90F2300F019F806446D1C1BE682
:101C000009280100303132333435363738396162D2
:101C10006364656600000000303132333435363796
:101C20003839414243444546000000002DE9F04167
:101C3000044600251E461746880404D405E03946AC
:101C40002020B0476D1C641EF9D52846BDE8F08100
:101C50002DE9F041044600251E469046C80301D5F3
:101C6000302700E02027880404D505E041463846A7
:101C7000B0476D1C641EF9D52846BDE8F081000010
:101C800013B54FF6FF73012269460248FFF7A4F926
:101C900000981CBD6C00002088B000200190FEF769
:101CA0001DFCFFF79EFCFFF7C7FAFFF70DFBFFF7E0
:101CB0002FFB11A0FFF782FD04E002A95220FFF7DD
:101CC0008BFB30B1FFF7B0FBFFF740FBFFF742FBA8
:101CD000F3E701A8FFF74BFB0028EED19DF80700C2
:101CE00000909DF806309DF805209DF8041004A092
:101CF000FFF764FDE1E70000676F0D0A00000000D8
:101D0000BFA8D5D2B5BD2530327825303278253000
:101D10003278253032780D0A0000000001020203FB
:101D20000405060708090A0B0C0D0E0F1010000021
:101D3000000000000000010203040607080900007B
:101D40000000010203040000681D000800000020DC
:101D500014000000FC1700087C1D0008140000207F
:101D6000A40400000C18000801000000100000008E
:0C1D70000000000000127A0000000000DB
:04000005080000ED02
:00000001FF
